{
  "contractName": "RRegulatedService",
  "abi": [
    {
      "constant": false,
      "inputs": [],
      "name": "renounceOwnership",
      "outputs": [],
      "payable": false,
      "stateMutability": "nonpayable",
      "type": "function",
      "signature": "0x715018a6"
    },
    {
      "constant": true,
      "inputs": [],
      "name": "owner",
      "outputs": [
        {
          "name": "",
          "type": "address"
        }
      ],
      "payable": false,
      "stateMutability": "view",
      "type": "function",
      "signature": "0x8da5cb5b"
    },
    {
      "constant": true,
      "inputs": [],
      "name": "isOwner",
      "outputs": [
        {
          "name": "",
          "type": "bool"
        }
      ],
      "payable": false,
      "stateMutability": "view",
      "type": "function",
      "signature": "0x8f32d59b"
    },
    {
      "constant": true,
      "inputs": [
        {
          "name": "",
          "type": "address"
        }
      ],
      "name": "whitelisted",
      "outputs": [
        {
          "name": "",
          "type": "bool"
        }
      ],
      "payable": false,
      "stateMutability": "view",
      "type": "function",
      "signature": "0xd936547e"
    },
    {
      "constant": false,
      "inputs": [
        {
          "name": "newOwner",
          "type": "address"
        }
      ],
      "name": "transferOwnership",
      "outputs": [],
      "payable": false,
      "stateMutability": "nonpayable",
      "type": "function",
      "signature": "0xf2fde38b"
    },
    {
      "anonymous": false,
      "inputs": [
        {
          "indexed": true,
          "name": "previousOwner",
          "type": "address"
        },
        {
          "indexed": true,
          "name": "newOwner",
          "type": "address"
        }
      ],
      "name": "OwnershipTransferred",
      "type": "event",
      "signature": "0x8be0079c531659141344cd1fd0a4f28419497f9722a3daafe3b4186f6b6457e0"
    },
    {
      "constant": false,
      "inputs": [
        {
          "name": "user",
          "type": "address"
        }
      ],
      "name": "addWhitelistAddress",
      "outputs": [],
      "payable": false,
      "stateMutability": "nonpayable",
      "type": "function",
      "signature": "0x94a7ef15"
    },
    {
      "constant": false,
      "inputs": [
        {
          "name": "user",
          "type": "address"
        }
      ],
      "name": "removeWhitelistAddress",
      "outputs": [],
      "payable": false,
      "stateMutability": "nonpayable",
      "type": "function",
      "signature": "0xb7ecbaae"
    },
    {
      "constant": true,
      "inputs": [
        {
          "name": "user",
          "type": "address"
        }
      ],
      "name": "isInvestorWhiteListed",
      "outputs": [
        {
          "name": "",
          "type": "bool"
        }
      ],
      "payable": false,
      "stateMutability": "view",
      "type": "function",
      "signature": "0xf3c6e993"
    },
    {
      "constant": false,
      "inputs": [
        {
          "name": "_token",
          "type": "address"
        },
        {
          "name": "_spender",
          "type": "address"
        },
        {
          "name": "_from",
          "type": "address"
        },
        {
          "name": "_to",
          "type": "address"
        },
        {
          "name": "_amount",
          "type": "uint256"
        }
      ],
      "name": "check",
      "outputs": [
        {
          "name": "",
          "type": "uint8"
        }
      ],
      "payable": false,
      "stateMutability": "nonpayable",
      "type": "function",
      "signature": "0x803fcd43"
    }
  ],
  "bytecode": "0x6080604052336000806101000a81548173ffffffffffffffffffffffffffffffffffffffff021916908373ffffffffffffffffffffffffffffffffffffffff1602179055506000809054906101000a900473ffffffffffffffffffffffffffffffffffffffff1673ffffffffffffffffffffffffffffffffffffffff16600073ffffffffffffffffffffffffffffffffffffffff167f8be0079c531659141344cd1fd0a4f28419497f9722a3daafe3b4186f6b6457e060405160405180910390a361087a806100cf6000396000f3fe608060405260043610610099576000357c0100000000000000000000000000000000000000000000000000000000900463ffffffff168063715018a61461009e578063803fcd43146100b55780638da5cb5b1461018a5780638f32d59b146101e157806394a7ef1514610210578063b7ecbaae14610261578063d936547e146102b2578063f2fde38b1461031b578063f3c6e9931461036c575b600080fd5b3480156100aa57600080fd5b506100b36103d5565b005b3480156100c157600080fd5b5061016e600480360360a08110156100d857600080fd5b81019080803573ffffffffffffffffffffffffffffffffffffffff169060200190929190803573ffffffffffffffffffffffffffffffffffffffff169060200190929190803573ffffffffffffffffffffffffffffffffffffffff169060200190929190803573ffffffffffffffffffffffffffffffffffffffff169060200190929190803590602001909291905050506104a7565b604051808260ff1660ff16815260200191505060405180910390f35b34801561019657600080fd5b5061019f61056d565b604051808273ffffffffffffffffffffffffffffffffffffffff1673ffffffffffffffffffffffffffffffffffffffff16815260200191505060405180910390f35b3480156101ed57600080fd5b506101f6610596565b604051808215151515815260200191505060405180910390f35b34801561021c57600080fd5b5061025f6004803603602081101561023357600080fd5b81019080803573ffffffffffffffffffffffffffffffffffffffff1690602001909291905050506105ed565b005b34801561026d57600080fd5b506102b06004803603602081101561028457600080fd5b81019080803573ffffffffffffffffffffffffffffffffffffffff16906020019092919050505061065a565b005b3480156102be57600080fd5b50610301600480360360208110156102d557600080fd5b81019080803573ffffffffffffffffffffffffffffffffffffffff1690602001909291905050506106bf565b604051808215151515815260200191505060405180910390f35b34801561032757600080fd5b5061036a6004803603602081101561033e57600080fd5b81019080803573ffffffffffffffffffffffffffffffffffffffff1690602001909291905050506106df565b005b34801561037857600080fd5b506103bb6004803603602081101561038f57600080fd5b81019080803573ffffffffffffffffffffffffffffffffffffffff1690602001909291905050506106fe565b604051808215151515815260200191505060405180910390f35b6103dd610596565b15156103e857600080fd5b600073ffffffffffffffffffffffffffffffffffffffff166000809054906101000a900473ffffffffffffffffffffffffffffffffffffffff1673ffffffffffffffffffffffffffffffffffffffff167f8be0079c531659141344cd1fd0a4f28419497f9722a3daafe3b4186f6b6457e060405160405180910390a360008060006101000a81548173ffffffffffffffffffffffffffffffffffffffff021916908373ffffffffffffffffffffffffffffffffffffffff160217905550565b6000600160008473ffffffffffffffffffffffffffffffffffffffff1673ffffffffffffffffffffffffffffffffffffffff16815260200190815260200160002060009054906101000a900460ff161561055f57600160008573ffffffffffffffffffffffffffffffffffffffff1673ffffffffffffffffffffffffffffffffffffffff16815260200190815260200160002060009054906101000a900460ff16156105565760009050610564565b60019050610564565b600190505b95945050505050565b60008060009054906101000a900473ffffffffffffffffffffffffffffffffffffffff16905090565b60008060009054906101000a900473ffffffffffffffffffffffffffffffffffffffff1673ffffffffffffffffffffffffffffffffffffffff163373ffffffffffffffffffffffffffffffffffffffff1614905090565b6105f5610596565b151561060057600080fd5b60018060008373ffffffffffffffffffffffffffffffffffffffff1673ffffffffffffffffffffffffffffffffffffffff16815260200190815260200160002060006101000a81548160ff02191690831515021790555050565b610662610596565b151561066d57600080fd5b600160008273ffffffffffffffffffffffffffffffffffffffff1673ffffffffffffffffffffffffffffffffffffffff16815260200190815260200160002060006101000a81549060ff021916905550565b60016020528060005260406000206000915054906101000a900460ff1681565b6106e7610596565b15156106f257600080fd5b6106fb81610754565b50565b6000600160008373ffffffffffffffffffffffffffffffffffffffff1673ffffffffffffffffffffffffffffffffffffffff16815260200190815260200160002060009054906101000a900460ff169050919050565b600073ffffffffffffffffffffffffffffffffffffffff168173ffffffffffffffffffffffffffffffffffffffff161415151561079057600080fd5b8073ffffffffffffffffffffffffffffffffffffffff166000809054906101000a900473ffffffffffffffffffffffffffffffffffffffff1673ffffffffffffffffffffffffffffffffffffffff167f8be0079c531659141344cd1fd0a4f28419497f9722a3daafe3b4186f6b6457e060405160405180910390a3806000806101000a81548173ffffffffffffffffffffffffffffffffffffffff021916908373ffffffffffffffffffffffffffffffffffffffff1602179055505056fea165627a7a7230582046ce252bf678bea702a7db0180a521c35be63a30775cfcda537c012535f1baae0029",
  "source": "/**\r\n   Copyright (c) 2017 Harbor Platform, Inc.\r\n\r\n   Licensed under the Apache License, Version 2.0 (the “License”);\r\n   you may not use this file except in compliance with the License.\r\n   You may obtain a copy of the License at\r\n\r\n   http://www.apache.org/licenses/LICENSE-2.0\r\n\r\n   Unless required by applicable law or agreed to in writing, software\r\n   distributed under the License is distributed on an “AS IS” BASIS,\r\n   WITHOUT WARRANTIES OR CONDITIONS OF ANY KIND, either express or implied.\r\n   See the License for the specific language governing permissions and\r\n   limitations under the License.\r\n*/\r\n\r\npragma solidity ^0.5.0;  \r\n\r\nimport './RegulatorService.sol';\r\n\r\n/**\r\n * TestRegulatorService is a RegulatorService meant for testing purposes.\r\n * It returns check() reason codes based on the amount of the transaction.\r\n */\r\ncontract RRegulatedService is RegulatorService  {\r\n  uint8 constant private SUCCESS = 0;  \r\n  uint8 constant private FAILED = 1;  \r\n  \r\n  mapping (address => bool) public whitelisted;\r\n  function addWhitelistAddress (address user) public onlyOwner { \r\n  \t  whitelisted[user] = true; \r\n  }\r\n  function removeWhitelistAddress (address user) public onlyOwner { \r\n  \t  delete whitelisted[user];\r\n  }\r\n  function isInvestorWhiteListed(address user) public view returns (bool) {\r\n  \t   return whitelisted[user]; \r\n  }\r\n\r\n  \r\n  /**\r\n   * @notice Checks whether or not a trade should be approved by checking the trade amount\r\n   *\r\n   * @param  _token The address of the token to be transfered\r\n   * @param  _spender The address of the spender of the token (unused in this implementation)\r\n   * @param  _from The address of the sender account\r\n   * @param  _to The address of the receiver account\r\n   * @param  _amount The quantity of the token to trade\r\n   *\r\n   * @return `true` if the trade should be approved and `false` if the trade should not be approved\r\n   */\r\n  function check(address _token, address _spender, address _from, address _to, uint256 _amount) public returns (uint8) {\r\n  \r\n  \t  if (whitelisted[_to])\r\n\t  {\r\n\t  \t if (whitelisted[_from]) \r\n     \t\treturn SUCCESS;\r\n\t\t else\r\n\t\t \treturn FAILED;\r\n\t  } else\r\n\t      return FAILED;\r\n\t \r\n  }\r\n  \r\n  \r\n}\r\n",
  "sourcePath": "F:/Projects/work/GS/blockchain/contracts/RRegulatedService.sol",
  "compiler": {
    "name": "solc",
    "version": "0.5.0+commit.1d4f565a.Emscripten.clang"
  },
  "schemaVersion": "3.0.1",
  "updatedAt": "2019-03-17T17:13:21.780Z",
  "devdoc": {
    "methods": {
      "check(address,address,address,address,uint256)": {
        "params": {
          "_amount": "The quantity of the token to trade\r ",
          "_from": "The address of the sender account\r",
          "_spender": "The address of the spender of the token (unused in this implementation)\r",
          "_to": "The address of the receiver account\r",
          "_token": "The address of the token to be transfered\r"
        },
        "return": "`true` if the trade should be approved and `false` if the trade should not be approved\r"
      },
      "isOwner()": {
        "return": "true if `msg.sender` is the owner of the contract."
      },
      "owner()": {
        "return": "the address of the owner."
      },
      "renounceOwnership()": {
        "details": "Allows the current owner to relinquish control of the contract."
      },
      "transferOwnership(address)": {
        "details": "Allows the current owner to transfer control of the contract to a newOwner.",
        "params": {
          "newOwner": "The address to transfer ownership to."
        }
      }
    }
  },
  "userdoc": {
    "methods": {
      "check(address,address,address,address,uint256)": {
        "notice": "Checks whether or not a trade should be approved by checking the trade amount\r "
      },
      "renounceOwnership()": {
        "notice": "Renouncing to ownership will leave the contract without an owner. It will not be possible to call the functions with the `onlyOwner` modifier anymore."
      }
    },
    "notice": "TestRegulatorService is a RegulatorService meant for testing purposes.\r It returns check() reason codes based on the amount of the transaction.\r"
  }
}