{
  "contractName": "test2",
  "abi": [
    {
      "constant": true,
      "inputs": [
        {
          "name": "",
          "type": "address"
        }
      ],
      "name": "whitelisted",
      "outputs": [
        {
          "name": "",
          "type": "bool"
        }
      ],
      "payable": false,
      "stateMutability": "view",
      "type": "function",
      "signature": "0xd936547e"
    },
    {
      "constant": false,
      "inputs": [
        {
          "name": "user",
          "type": "address"
        }
      ],
      "name": "addWhitelistAddress",
      "outputs": [],
      "payable": false,
      "stateMutability": "nonpayable",
      "type": "function",
      "signature": "0x94a7ef15"
    },
    {
      "constant": false,
      "inputs": [
        {
          "name": "user",
          "type": "address"
        }
      ],
      "name": "removeWhitelistAddress",
      "outputs": [],
      "payable": false,
      "stateMutability": "nonpayable",
      "type": "function",
      "signature": "0xb7ecbaae"
    },
    {
      "constant": true,
      "inputs": [
        {
          "name": "check",
          "type": "address"
        }
      ],
      "name": "isAddress",
      "outputs": [
        {
          "name": "isIndeed",
          "type": "bool"
        }
      ],
      "payable": false,
      "stateMutability": "view",
      "type": "function",
      "signature": "0x5c32460b"
    }
  ],
  "bytecode": "0x608060405234801561001057600080fd5b50610327806100206000396000f3fe608060405260043610610062576000357c0100000000000000000000000000000000000000000000000000000000900463ffffffff1680635c32460b1461006757806394a7ef15146100d0578063b7ecbaae14610121578063d936547e14610172575b600080fd5b34801561007357600080fd5b506100b66004803603602081101561008a57600080fd5b81019080803573ffffffffffffffffffffffffffffffffffffffff1690602001909291905050506101db565b604051808215151515815260200191505060405180910390f35b3480156100dc57600080fd5b5061011f600480360360208110156100f357600080fd5b81019080803573ffffffffffffffffffffffffffffffffffffffff169060200190929190505050610230565b005b34801561012d57600080fd5b506101706004803603602081101561014457600080fd5b81019080803573ffffffffffffffffffffffffffffffffffffffff16906020019092919050505061028a565b005b34801561017e57600080fd5b506101c16004803603602081101561019557600080fd5b81019080803573ffffffffffffffffffffffffffffffffffffffff1690602001909291905050506102db565b604051808215151515815260200191505060405180910390f35b60008060008373ffffffffffffffffffffffffffffffffffffffff1673ffffffffffffffffffffffffffffffffffffffff16815260200190815260200160002060009054906101000a900460ff169050919050565b60016000808373ffffffffffffffffffffffffffffffffffffffff1673ffffffffffffffffffffffffffffffffffffffff16815260200190815260200160002060006101000a81548160ff02191690831515021790555050565b6000808273ffffffffffffffffffffffffffffffffffffffff1673ffffffffffffffffffffffffffffffffffffffff16815260200190815260200160002060006101000a81549060ff021916905550565b60006020528060005260406000206000915054906101000a900460ff168156fea165627a7a723058203b3abafdaf844d0bbb0adcafa190a30fddda058ee907107bc3cc012f8d1ede100029",
  "source": "pragma solidity ^0.5.0;  \r\n\r\ncontract test2  {\r\n\r\n  mapping (address => bool) public whitelisted;\r\n  \r\n  function addWhitelistAddress (address user) public  { \r\n  \t  whitelisted[user] = true; \r\n  }\r\n  \r\n  function removeWhitelistAddress (address user) public  { \r\n  \t  delete whitelisted[user];\r\n  }\r\n  \r\n  function isAddress(address check) public view returns(bool isIndeed) {\r\n\t  return whitelisted[check];\r\n  }  \r\n\r\n}\r\n\r\n\r\n",
  "sourcePath": "F:/Projects/work/GS/blockchain/contracts/test2.sol",
  "compiler": {
    "name": "solc",
    "version": "0.5.0+commit.1d4f565a.Emscripten.clang"
  },
  "schemaVersion": "3.0.1",
  "updatedAt": "2019-03-14T15:31:59.571Z",
  "devdoc": {
    "methods": {}
  },
  "userdoc": {
    "methods": {}
  }
}